:100000000C942A000C943F000C943F000C943F0089
:100010000C943F000C943F000C943F000C943F0064
:100020000C943F000C943F000C943F000C943F0054
:100030000C943F000C943F000C943F000C943F0044
:100040000C943F000C943F000C943F000C943F0034
:100050000C943F0011241FBECFE5D8E0DEBFCDBF1A
:1000600010E0A0E6B0E0E2E6F1E002C005900D92FB
:10007000A03AB107D9F70E9441000C94AF000C944C
:1000800000001F93CF93DF938AB383608ABB0E94E3
:10009000900080E690E00E94A20088EE93E028ECB9
:1000A00030E0F9013197F1F70197D9F78DE00E941F
:1000B0009A008AE690E00E94A2008DE00E949A00D9
:1000C00085E790E00E94A200C8ECD0E08DE00E949D
:1000D0009A000E949E00182F0E949A00113319F472
:1000E0008BB3836004C0123321F48BB38C7F8BBB42
:1000F0000FC0133331F48DE00E949A008AE890E03B
:1001000005C08DE00E949A0084E990E00E94A20060
:1001100088EE93E0FE013197F1F70197B9F2FACF3B
:1001200010BC83E389B98AB188618AB980B58668D1
:1001300080BD08955D9BFECF8CB908955F9BFECF77
:100140008CB1089520E004C05D9BFECF2F5FECB919
:10015000FC01E20FF11DE081EE23B1F70895F89460
:02016000FFCFCF
:10016200312D204C4544204F4E00322D204C454429
:10017200204F464600332D205072696E7420224271
:100182006C616820426C61682200426C61682042A6
:100192006C61680057524F4F4F4F4F4E472121001D
:00000001FF
