:100000000C942A000C943F000C943F000C943F0089
:100010000C943F000C943F000C943F000C943F0064
:100020000C943F000C943F000C943F000C943F0054
:100030000C943F000C943F000C943F000C943F0044
:100040000C943F000C943F000C943F000C943F0034
:100050000C943F0011241FBECFE5D8E0DEBFCDBF1A
:1000600010E0A0E6B0E0E6E6F1E002C005900D92F7
:10007000A03AB107D9F70E9466000C94B1000C9425
:10008000000010BC83E389B98AB188618AB980B560
:10009000866880BD08955D9BFECF8CB908955F9BF7
:1000A000FECF8CB108950F931F93CF938C01C0E0C6
:1000B000F801EC0FF11D8081882321F0CF5F0E94B1
:1000C0004B00F6CFCF911F910F9108958AB38360B3
:1000D0008ABB0E94410080E690E00E9453002FEF0F
:1000E00080E792E0215080409040E1F700C000009E
:1000F0008DE00E944B008AE690E00E9453008DE064
:100100000E944B0085E790E00E9453008DE00E9422
:100110004B000E944F00C82F0E944B00C13319F4BE
:100120008BB3836004C0C03321F48BB38C7F8BBB53
:100130000EC08DE0C33329F40E944B008AE890E0A2
:1001400004C00E944B0084E990E00E9453002FEF0E
:1001500080E792E0215080409040E1F700C000002D
:06016000D5CFF894FFCF9B
:10016600312D204C4544204F4E00322D204C454425
:10017600204F464600332D205072696E742022426D
:100186006C616820426C61682200426C61682042A2
:100196006C61680057524F4F4F4F4F4E4721210019
:00000001FF
